{
    "contractName": "Bitcoin3D",
    "abi": [
        {
            "inputs": [
                {
                    "internalType": "uint256",
                    "name": "supply",
                    "type": "uint256"
                },
                {
                    "internalType": "uint256",
                    "name": "reserved",
                    "type": "uint256"
                },
                {
                    "internalType": "uint256",
                    "name": "whaleFunding",
                    "type": "uint256"
                },
                {
                    "internalType": "uint256",
                    "name": "numberOfBurns",
                    "type": "uint256"
                },
                {
                    "internalType": "uint256",
                    "name": "burnAmount",
                    "type": "uint256"
                }
            ],
            "stateMutability": "nonpayable",
            "type": "constructor"
        },
        {
            "anonymous": false,
            "inputs": [
                {
                    "indexed": true,
                    "internalType": "address",
                    "name": "_owner",
                    "type": "address"
                },
                {
                    "indexed": true,
                    "internalType": "address",
                    "name": "_spender",
                    "type": "address"
                },
                {
                    "indexed": false,
                    "internalType": "uint256",
                    "name": "_value",
                    "type": "uint256"
                }
            ],
            "name": "Approval",
            "type": "event"
        },
        {
            "anonymous": false,
            "inputs": [
                {
                    "indexed": true,
                    "internalType": "address",
                    "name": "_from",
                    "type": "address"
                },
                {
                    "indexed": true,
                    "internalType": "address",
                    "name": "_to",
                    "type": "address"
                },
                {
                    "indexed": false,
                    "internalType": "uint256",
                    "name": "_value",
                    "type": "uint256"
                }
            ],
            "name": "Transfer",
            "type": "event"
        },
        {
            "inputs": [
                {
                    "internalType": "address",
                    "name": "_owner",
                    "type": "address"
                },
                {
                    "internalType": "address",
                    "name": "_spender",
                    "type": "address"
                }
            ],
            "name": "allowance",
            "outputs": [
                {
                    "internalType": "uint256",
                    "name": "remaining",
                    "type": "uint256"
                }
            ],
            "stateMutability": "view",
            "type": "function"
        },
        {
            "inputs": [
                {
                    "internalType": "address",
                    "name": "_spender",
                    "type": "address"
                },
                {
                    "internalType": "uint256",
                    "name": "_value",
                    "type": "uint256"
                }
            ],
            "name": "approve",
            "outputs": [
                {
                    "internalType": "bool",
                    "name": "success",
                    "type": "bool"
                }
            ],
            "stateMutability": "nonpayable",
            "type": "function"
        },
        {
            "inputs": [
                {
                    "internalType": "address",
                    "name": "_spender",
                    "type": "address"
                },
                {
                    "internalType": "uint256",
                    "name": "_value",
                    "type": "uint256"
                },
                {
                    "internalType": "bytes",
                    "name": "_extraData",
                    "type": "bytes"
                }
            ],
            "name": "approveAndCall",
            "outputs": [
                {
                    "internalType": "bool",
                    "name": "success",
                    "type": "bool"
                }
            ],
            "stateMutability": "nonpayable",
            "type": "function"
        },
        {
            "inputs": [
                {
                    "internalType": "address",
                    "name": "_owner",
                    "type": "address"
                }
            ],
            "name": "balanceOf",
            "outputs": [
                {
                    "internalType": "uint256",
                    "name": "balance",
                    "type": "uint256"
                }
            ],
            "stateMutability": "view",
            "type": "function"
        },
        {
            "inputs": [],
            "name": "decimals",
            "outputs": [
                {
                    "internalType": "uint8",
                    "name": "",
                    "type": "uint8"
                }
            ],
            "stateMutability": "view",
            "type": "function"
        },
        {
            "inputs": [],
            "name": "name",
            "outputs": [
                {
                    "internalType": "string",
                    "name": "",
                    "type": "string"
                }
            ],
            "stateMutability": "view",
            "type": "function"
        },
        {
            "inputs": [],
            "name": "symbol",
            "outputs": [
                {
                    "internalType": "string",
                    "name": "",
                    "type": "string"
                }
            ],
            "stateMutability": "view",
            "type": "function"
        },
        {
            "inputs": [],
            "name": "totalSupply",
            "outputs": [
                {
                    "internalType": "uint256",
                    "name": "supply",
                    "type": "uint256"
                }
            ],
            "stateMutability": "view",
            "type": "function"
        },
        {
            "inputs": [
                {
                    "internalType": "address",
                    "name": "_to",
                    "type": "address"
                },
                {
                    "internalType": "uint256",
                    "name": "_value",
                    "type": "uint256"
                }
            ],
            "name": "transfer",
            "outputs": [
                {
                    "internalType": "bool",
                    "name": "success",
                    "type": "bool"
                }
            ],
            "stateMutability": "nonpayable",
            "type": "function"
        },
        {
            "inputs": [
                {
                    "internalType": "address",
                    "name": "_from",
                    "type": "address"
                },
                {
                    "internalType": "address",
                    "name": "_to",
                    "type": "address"
                },
                {
                    "internalType": "uint256",
                    "name": "_value",
                    "type": "uint256"
                }
            ],
            "name": "transferFrom",
            "outputs": [
                {
                    "internalType": "bool",
                    "name": "success",
                    "type": "bool"
                }
            ],
            "stateMutability": "nonpayable",
            "type": "function"
        },
        {
            "inputs": [],
            "name": "version",
            "outputs": [
                {
                    "internalType": "string",
                    "name": "",
                    "type": "string"
                }
            ],
            "stateMutability": "view",
            "type": "function"
        }
    ],
    "bytecode": "60086000908155600181905565048c27395000600255600380546001600160a01b03191661dead1790556101a0604052608081815260a082905260c082905260e08290526101008290526101208290526101408290526101608290526101809190915262000072906004906009620001a6565b50604080518082019091526005808252640312e302e360dc1b6020909201918252620000a191600d91620001fb565b50348015620000af57600080fd5b5060405162000d4438038062000d44833981016040819052620000d2916200028f565b60058590556000829055600281905560098490556008839055620000f78282620002e6565b8360095462000107919062000308565b62000113919062000308565b33600090815260066020908152604091829020929092558051808201909152600980825268109a5d18dbda5b8cd160ba1b919092019081526200015a91600a9190620001fb565b50600b805460ff1916601217905560408051808201909152600980825268109a5d18dbda5b8cd160ba1b60209092019182526200019a91600c91620001fb565b50505050505062000360565b828054828255906000526020600020908101928215620001e9579160200282015b82811115620001e9578251829060ff16905591602001919060010190620001c7565b50620001f792915062000278565b5090565b828054620002099062000323565b90600052602060002090601f0160209004810192826200022d5760008555620001e9565b82601f106200024857805160ff1916838001178555620001e9565b82800160010185558215620001e9579182015b82811115620001e95782518255916020019190600101906200025b565b5b80821115620001f7576000815560010162000279565b600080600080600060a08688031215620002a857600080fd5b5050835160208501516040860151606087015160809097015192989197509594509092509050565b634e487b7160e01b600052601160045260246000fd5b6000816000190483118215151615620003035762000303620002d0565b500290565b600082198211156200031e576200031e620002d0565b500190565b600181811c908216806200033857607f821691505b602082108114156200035a57634e487b7160e01b600052602260045260246000fd5b50919050565b6109d480620003706000396000f3fe608060405234801561001057600080fd5b50600436106100a95760003560e01c806354fd4d501161007157806354fd4d501461013357806370a082311461013b57806395d89b4114610164578063a9059cbb1461016c578063cae9ca511461017f578063dd62ed3e1461019257600080fd5b806306fdde03146100ae578063095ea7b3146100cc57806318160ddd146100ef57806323b872dd14610101578063313ce56714610114575b600080fd5b6100b66101cb565b6040516100c391906106ec565b60405180910390f35b6100df6100da36600461071b565b610259565b60405190151581526020016100c3565b6005545b6040519081526020016100c3565b6100df61010f366004610745565b6102c6565b600b546101219060ff1681565b60405160ff90911681526020016100c3565b6100b6610416565b6100f3610149366004610781565b6001600160a01b031660009081526006602052604090205490565b6100b6610423565b6100df61017a36600461071b565b610430565b6100df61018d3660046107b2565b610536565b6100f36101a036600461087d565b6001600160a01b03918216600090815260076020908152604080832093909416825291909152205490565b600a80546101d8906108b0565b80601f0160208091040260200160405190810160405280929190818152602001828054610204906108b0565b80156102515780601f1061022657610100808354040283529160200191610251565b820191906000526020600020905b81548152906001019060200180831161023457829003601f168201915b505050505081565b3360008181526007602090815260408083206001600160a01b038716808552925280832085905551919290917f8c5be1e5ebec7d5bd14f71427d1e84f3dd0314c0f7b2291e5b200ac8c7c3b925906102b49086815260200190565b60405180910390a35060015b92915050565b6001600160a01b038316600090815260066020526040812054821180159061031157506001600160a01b03841660009081526007602090815260408083203384529091529020548211155b801561031d5750600082115b1561040b576001600160a01b0383166000908152600660205260408120805484929061034a908490610901565b90915550506001600160a01b03841660009081526006602052604081208054849290610377908490610919565b90915550506001600160a01b0384166000908152600760209081526040808320338452909152812080548492906103af908490610919565b92505081905550826001600160a01b0316846001600160a01b03167fddf252ad1be2c89b69c2b068fc378daa952ba7f163c4a11628f55a4df523b3ef846040516103fb91815260200190565b60405180910390a350600161040f565b5060005b9392505050565b600d80546101d8906108b0565b600c80546101d8906108b0565b600061043a610607565b3360009081526006602052604090205482118015906104595750600082115b156104c957336000908152600660205260408120805484929061047d908490610919565b909155505060018211156104c957610496600183610919565b6001600160a01b038416600090815260066020526040812080549091906104be908490610901565b909155506104d19050565b5060006102c0565b6040518281526001600160a01b0384169033907fddf252ad1be2c89b69c2b068fc378daa952ba7f163c4a11628f55a4df523b3ef9060200160405180910390a36003546001600160a01b0384811691161461052e5761052e610685565b5060016102c0565b3360008181526007602090815260408083206001600160a01b038816808552925280832086905551919290917f8c5be1e5ebec7d5bd14f71427d1e84f3dd0314c0f7b2291e5b200ac8c7c3b925906105919087815260200190565b60405180910390a3604051638f4ffcb160e01b81526001600160a01b03851690638f4ffcb1906105cb903390879030908890600401610930565b600060405180830381600087803b1580156105e557600080fd5b505af11580156105f9573d6000803e3d6000fd5b506001979650505050505050565b6001546000541161061457565b6004600154815481106106295761062961096d565b906000526020600020015442101561063d57565b60016000815461064c90610983565b90915550600354600254610669916001600160a01b031690610430565b506002546005600082825461067e9190610919565b9091555050565b60035461069c906001600160a01b03166001610430565b50565b6000815180845260005b818110156106c5576020818501810151868301820152016106a9565b818111156106d7576000602083870101525b50601f01601f19169290920160200192915050565b60208152600061040f602083018461069f565b80356001600160a01b038116811461071657600080fd5b919050565b6000806040838503121561072e57600080fd5b610737836106ff565b946020939093013593505050565b60008060006060848603121561075a57600080fd5b610763846106ff565b9250610771602085016106ff565b9150604084013590509250925092565b60006020828403121561079357600080fd5b61040f826106ff565b634e487b7160e01b600052604160045260246000fd5b6000806000606084860312156107c757600080fd5b6107d0846106ff565b925060208401359150604084013567ffffffffffffffff808211156107f457600080fd5b818601915086601f83011261080857600080fd5b81358181111561081a5761081a61079c565b604051601f8201601f19908116603f011681019083821181831017156108425761084261079c565b8160405282815289602084870101111561085b57600080fd5b8260208601602083013760006020848301015280955050505050509250925092565b6000806040838503121561089057600080fd5b610899836106ff565b91506108a7602084016106ff565b90509250929050565b600181811c908216806108c457607f821691505b602082108114156108e557634e487b7160e01b600052602260045260246000fd5b50919050565b634e487b7160e01b600052601160045260246000fd5b60008219821115610914576109146108eb565b500190565b60008282101561092b5761092b6108eb565b500390565b6001600160a01b03858116825260208201859052831660408201526080606082018190526000906109639083018461069f565b9695505050505050565b634e487b7160e01b600052603260045260246000fd5b6000600019821415610997576109976108eb565b506001019056fea26469706673582212205c345a7a4d1f530ea0fbc1ad04eb507706e4687b9ec8fe77e7078efc6fe4adcc64736f6c634300080b0033",
    "sourcePath": "/Users/alexanderwood/Projects/Bitcoin3D/solidity/contracts/Bitcoin3DContractCode.sol",
    "compiler": {
        "name": "solc",
        "version": "0.8.11+commit.d7f03943"
    },
    "functionHashes": {
        "allowance(address,address)": "dd62ed3e",
        "approve(address,uint256)": "095ea7b3",
        "approveAndCall(address,uint256,bytes)": "cae9ca51",
        "balanceOf(address)": "70a08231",
        "decimals()": "313ce567",
        "name()": "06fdde03",
        "symbol()": "95d89b41",
        "totalSupply()": "18160ddd",
        "transfer(address,uint256)": "a9059cbb",
        "transferFrom(address,address,uint256)": "23b872dd",
        "version()": "54fd4d50"
    },
    "gasEstimates": {
        "creation": {
            "codeDepositCost": "503200",
            "executionCost": "infinite",
            "totalCost": "infinite"
        },
        "external": {
            "allowance(address,address)": "infinite",
            "approve(address,uint256)": "24523",
            "approveAndCall(address,uint256,bytes)": "infinite",
            "balanceOf(address)": "2559",
            "decimals()": "2402",
            "name()": "infinite",
            "symbol()": "infinite",
            "totalSupply()": "2326",
            "transfer(address,uint256)": "infinite",
            "transferFrom(address,address,uint256)": "infinite",
            "version()": "infinite"
        }
    }
}