{
    "contractName": "Bitcoin3D",
    "abi": [
        {
            "inputs": [
                {
                    "internalType": "uint256",
                    "name": "supply",
                    "type": "uint256"
                }
            ],
            "stateMutability": "nonpayable",
            "type": "constructor"
        },
        {
            "anonymous": false,
            "inputs": [
                {
                    "indexed": true,
                    "internalType": "address",
                    "name": "_owner",
                    "type": "address"
                },
                {
                    "indexed": true,
                    "internalType": "address",
                    "name": "_spender",
                    "type": "address"
                },
                {
                    "indexed": false,
                    "internalType": "uint256",
                    "name": "_value",
                    "type": "uint256"
                }
            ],
            "name": "Approval",
            "type": "event"
        },
        {
            "anonymous": false,
            "inputs": [
                {
                    "indexed": true,
                    "internalType": "address",
                    "name": "_from",
                    "type": "address"
                },
                {
                    "indexed": true,
                    "internalType": "address",
                    "name": "_to",
                    "type": "address"
                },
                {
                    "indexed": false,
                    "internalType": "uint256",
                    "name": "_value",
                    "type": "uint256"
                }
            ],
            "name": "Transfer",
            "type": "event"
        },
        {
            "inputs": [
                {
                    "internalType": "address",
                    "name": "_owner",
                    "type": "address"
                },
                {
                    "internalType": "address",
                    "name": "_spender",
                    "type": "address"
                }
            ],
            "name": "allowance",
            "outputs": [
                {
                    "internalType": "uint256",
                    "name": "remaining",
                    "type": "uint256"
                }
            ],
            "stateMutability": "view",
            "type": "function"
        },
        {
            "inputs": [
                {
                    "internalType": "address",
                    "name": "_spender",
                    "type": "address"
                },
                {
                    "internalType": "uint256",
                    "name": "_value",
                    "type": "uint256"
                }
            ],
            "name": "approve",
            "outputs": [
                {
                    "internalType": "bool",
                    "name": "success",
                    "type": "bool"
                }
            ],
            "stateMutability": "nonpayable",
            "type": "function"
        },
        {
            "inputs": [
                {
                    "internalType": "address",
                    "name": "_spender",
                    "type": "address"
                },
                {
                    "internalType": "uint256",
                    "name": "_value",
                    "type": "uint256"
                },
                {
                    "internalType": "bytes",
                    "name": "_extraData",
                    "type": "bytes"
                }
            ],
            "name": "approveAndCall",
            "outputs": [
                {
                    "internalType": "bool",
                    "name": "success",
                    "type": "bool"
                }
            ],
            "stateMutability": "nonpayable",
            "type": "function"
        },
        {
            "inputs": [
                {
                    "internalType": "address",
                    "name": "_owner",
                    "type": "address"
                }
            ],
            "name": "balanceOf",
            "outputs": [
                {
                    "internalType": "uint256",
                    "name": "balance",
                    "type": "uint256"
                }
            ],
            "stateMutability": "view",
            "type": "function"
        },
        {
            "inputs": [],
            "name": "decimals",
            "outputs": [
                {
                    "internalType": "uint8",
                    "name": "",
                    "type": "uint8"
                }
            ],
            "stateMutability": "view",
            "type": "function"
        },
        {
            "inputs": [],
            "name": "name",
            "outputs": [
                {
                    "internalType": "string",
                    "name": "",
                    "type": "string"
                }
            ],
            "stateMutability": "view",
            "type": "function"
        },
        {
            "inputs": [],
            "name": "symbol",
            "outputs": [
                {
                    "internalType": "string",
                    "name": "",
                    "type": "string"
                }
            ],
            "stateMutability": "view",
            "type": "function"
        },
        {
            "inputs": [],
            "name": "totalSupply",
            "outputs": [
                {
                    "internalType": "uint256",
                    "name": "supply",
                    "type": "uint256"
                }
            ],
            "stateMutability": "view",
            "type": "function"
        },
        {
            "inputs": [
                {
                    "internalType": "address",
                    "name": "_to",
                    "type": "address"
                },
                {
                    "internalType": "uint256",
                    "name": "_value",
                    "type": "uint256"
                }
            ],
            "name": "transfer",
            "outputs": [
                {
                    "internalType": "bool",
                    "name": "success",
                    "type": "bool"
                }
            ],
            "stateMutability": "nonpayable",
            "type": "function"
        },
        {
            "inputs": [
                {
                    "internalType": "address",
                    "name": "_from",
                    "type": "address"
                },
                {
                    "internalType": "address",
                    "name": "_to",
                    "type": "address"
                },
                {
                    "internalType": "uint256",
                    "name": "_value",
                    "type": "uint256"
                }
            ],
            "name": "transferFrom",
            "outputs": [
                {
                    "internalType": "bool",
                    "name": "success",
                    "type": "bool"
                }
            ],
            "stateMutability": "nonpayable",
            "type": "function"
        },
        {
            "inputs": [],
            "name": "version",
            "outputs": [
                {
                    "internalType": "string",
                    "name": "",
                    "type": "string"
                }
            ],
            "stateMutability": "view",
            "type": "function"
        }
    ],
    "bytecode": "60086000908155600155600280546001600160a01b03191661dead17905560c060405260056080819052640312e302e360dc1b60a090815261004491600991906100fd565b5034801561005157600080fd5b50604051610afa380380610afa83398101604081905261007091610196565b6003819055336000908152600460209081526040918290208390558151808301909252600980835268109a5d18dbda5b8cd160ba1b929091019182526100b8916006916100fd565b506007805460ff1916601217905560408051808201909152600980825268109a5d18dbda5b8cd160ba1b60209092019182526100f6916008916100fd565b50506101ea565b828054610109906101af565b90600052602060002090601f01602090048101928261012b5760008555610171565b82601f1061014457805160ff1916838001178555610171565b82800160010185558215610171579182015b82811115610171578251825591602001919060010190610156565b5061017d929150610181565b5090565b5b8082111561017d5760008155600101610182565b6000602082840312156101a857600080fd5b5051919050565b600181811c908216806101c357607f821691505b602082108114156101e457634e487b7160e01b600052602260045260246000fd5b50919050565b610901806101f96000396000f3fe608060405234801561001057600080fd5b50600436106100a95760003560e01c806354fd4d501161007157806354fd4d501461013357806370a082311461013b57806395d89b4114610164578063a9059cbb1461016c578063cae9ca511461017f578063dd62ed3e1461019257600080fd5b806306fdde03146100ae578063095ea7b3146100cc57806318160ddd146100ef57806323b872dd14610101578063313ce56714610114575b600080fd5b6100b66101cb565b6040516100c3919061064a565b60405180910390f35b6100df6100da366004610679565b610259565b60405190151581526020016100c3565b6003545b6040519081526020016100c3565b6100df61010f3660046106a3565b6102c6565b6007546101219060ff1681565b60405160ff90911681526020016100c3565b6100b6610416565b6100f36101493660046106df565b6001600160a01b031660009081526004602052604090205490565b6100b6610423565b6100df61017a366004610679565b610430565b6100df61018d366004610710565b610512565b6100f36101a03660046107db565b6001600160a01b03918216600090815260056020908152604080832093909416825291909152205490565b600680546101d89061080e565b80601f01602080910402602001604051908101604052809291908181526020018280546102049061080e565b80156102515780601f1061022657610100808354040283529160200191610251565b820191906000526020600020905b81548152906001019060200180831161023457829003601f168201915b505050505081565b3360008181526005602090815260408083206001600160a01b038716808552925280832085905551919290917f8c5be1e5ebec7d5bd14f71427d1e84f3dd0314c0f7b2291e5b200ac8c7c3b925906102b49086815260200190565b60405180910390a35060015b92915050565b6001600160a01b038316600090815260046020526040812054821180159061031157506001600160a01b03841660009081526005602090815260408083203384529091529020548211155b801561031d5750600082115b1561040b576001600160a01b0383166000908152600460205260408120805484929061034a90849061085f565b90915550506001600160a01b03841660009081526004602052604081208054849290610377908490610877565b90915550506001600160a01b0384166000908152600560209081526040808320338452909152812080548492906103af908490610877565b92505081905550826001600160a01b0316846001600160a01b03167fddf252ad1be2c89b69c2b068fc378daa952ba7f163c4a11628f55a4df523b3ef846040516103fb91815260200190565b60405180910390a350600161040f565b5060005b9392505050565b600980546101d89061080e565b600880546101d89061080e565b33600090815260046020526040812054821180159061044f5750600082115b1561050a573360009081526004602052604081208054849290610473908490610877565b90915550506001600160a01b038316600090815260046020526040812080548492906104a090849061085f565b90915550506040518281526001600160a01b0384169033907fddf252ad1be2c89b69c2b068fc378daa952ba7f163c4a11628f55a4df523b3ef9060200160405180910390a36002546001600160a01b03848116911614610502576105026105e3565b5060016102c0565b5060006102c0565b3360008181526005602090815260408083206001600160a01b038816808552925280832086905551919290917f8c5be1e5ebec7d5bd14f71427d1e84f3dd0314c0f7b2291e5b200ac8c7c3b9259061056d9087815260200190565b60405180910390a3604051638f4ffcb160e01b81526001600160a01b03851690638f4ffcb1906105a790339087903090889060040161088e565b600060405180830381600087803b1580156105c157600080fd5b505af11580156105d5573d6000803e3d6000fd5b506001979650505050505050565b6002546105fa906001600160a01b03166001610430565b50565b6000815180845260005b8181101561062357602081850181015186830182015201610607565b81811115610635576000602083870101525b50601f01601f19169290920160200192915050565b60208152600061040f60208301846105fd565b80356001600160a01b038116811461067457600080fd5b919050565b6000806040838503121561068c57600080fd5b6106958361065d565b946020939093013593505050565b6000806000606084860312156106b857600080fd5b6106c18461065d565b92506106cf6020850161065d565b9150604084013590509250925092565b6000602082840312156106f157600080fd5b61040f8261065d565b634e487b7160e01b600052604160045260246000fd5b60008060006060848603121561072557600080fd5b61072e8461065d565b925060208401359150604084013567ffffffffffffffff8082111561075257600080fd5b818601915086601f83011261076657600080fd5b813581811115610778576107786106fa565b604051601f8201601f19908116603f011681019083821181831017156107a0576107a06106fa565b816040528281528960208487010111156107b957600080fd5b8260208601602083013760006020848301015280955050505050509250925092565b600080604083850312156107ee57600080fd5b6107f78361065d565b91506108056020840161065d565b90509250929050565b600181811c9082168061082257607f821691505b6020821081141561084357634e487b7160e01b600052602260045260246000fd5b50919050565b634e487b7160e01b600052601160045260246000fd5b6000821982111561087257610872610849565b500190565b60008282101561088957610889610849565b500390565b6001600160a01b03858116825260208201859052831660408201526080606082018190526000906108c1908301846105fd565b969550505050505056fea2646970667358221220163e45a8db96a700af07e2fc75996bea678c38f8483b8eb3383730504a1e822864736f6c634300080b0033",
    "sourcePath": "/Users/alexanderwood/Projects/Bitcoin3D/solidity/contracts/Bitcoin3D.sol",
    "compiler": {
        "name": "solc",
        "version": "0.8.11+commit.d7f03943"
    },
    "functionHashes": {
        "allowance(address,address)": "dd62ed3e",
        "approve(address,uint256)": "095ea7b3",
        "approveAndCall(address,uint256,bytes)": "cae9ca51",
        "balanceOf(address)": "70a08231",
        "decimals()": "313ce567",
        "name()": "06fdde03",
        "symbol()": "95d89b41",
        "totalSupply()": "18160ddd",
        "transfer(address,uint256)": "a9059cbb",
        "transferFrom(address,address,uint256)": "23b872dd",
        "version()": "54fd4d50"
    },
    "gasEstimates": {
        "creation": {
            "codeDepositCost": "461000",
            "executionCost": "infinite",
            "totalCost": "infinite"
        },
        "external": {
            "allowance(address,address)": "infinite",
            "approve(address,uint256)": "24523",
            "approveAndCall(address,uint256,bytes)": "infinite",
            "balanceOf(address)": "2559",
            "decimals()": "2402",
            "name()": "infinite",
            "symbol()": "infinite",
            "totalSupply()": "2326",
            "transfer(address,uint256)": "infinite",
            "transferFrom(address,address,uint256)": "infinite",
            "version()": "infinite"
        }
    }
}